:020000040000FA
:100000000C9463000C948B000C948B000C948B006C
:100010000C948B000C948B000C948B000C948B0034
:100020000C948B000C948B000C948B000C948B0024
:100030000C948B000C948B000C948B000C948B0014
:100040000C94CA030C948B000C9498030C947203C8
:100050000C948B000C948B000C948B000C948B00F4
:100060000C948B000C948B000000000025002800ED
:100070002B0000000000240027002A0000000000E0
:1000800023002600290004040404040404040202DA
:100090000202020203030303030301020408102007
:1000A0004080010204081020010204081020000012
:1000B0000008000201000003040700000000000027
:1000C00000001404000711241FBECFEFD8E0DEBFEC
:1000D000CDBF22E0ACE7B1E001C01D92AE33B20764
:1000E000E1F711E0A0E0B1E0E4E0F3E102C0059047
:1000F0000D92AC37B107D9F710E0C2E6D0E004C0EA
:100100002197FE010E947407C136D107C9F70E94EA
:100110004C040C9475090C940000AF92BF92CF92DE
:10012000DF92EF92FF920F931F93CF93DF936C01B7
:100130007B018B01040F151FEB015E01AE18BF0898
:10014000C017D10759F06991D601ED91FC9101904A
:10015000F081E02DC6010995892B79F7C501DF9162
:10016000CF911F910F91FF90EF90DF90CF90BF90B4
:10017000AF900895FC01538D448D252F30E0842FDE
:1001800090E0821B930B541710F0CF9608950197BF
:100190000895FC01918D828D981761F0A28DAE0FAC
:1001A000BF2FB11D5D968C91928D9F5F9F73928F33
:1001B00090E008958FEF9FEF0895FC01918D828D5F
:1001C000981731F0828DE80FF11D858D90E008952C
:1001D0008FEF9FEF0895FC01918D228D892F90E084
:1001E000805C9F4F821B91098F739927089581E945
:1001F00091E00E94EB0021E0892B09F420E0822F9E
:10020000089580E090E0892B29F00E94F700811189
:100210000C9400000895FC01A48DA80FB92FB11D06
:10022000A35ABF4F2C91848D90E001968F7399272C
:10023000848FA689B7892C93A089B1898C9183700A
:1002400080648C93938D848D981306C00288F38903
:10025000E02D80818F7D80830895EF92FF920F9330
:100260001F93CF93DF93EC0181E0888F9B8D8C8D62
:1002700098131AC0E889F989808185FF15C09FB756
:10028000F894EE89FF896083E889F9898081837019
:10029000806480839FBF81E090E0DF91CF911F91C8
:1002A0000F91FF90EF900895F62E0B8D10E00F5FE9
:1002B0001F4F0F731127E02E8C8D8E110CC00FB6BF
:1002C00007FCFACFE889F989808185FFF5CFCE0157
:1002D0000E940B01F1CFEB8DEC0FFD2FF11DE35AC6
:1002E000FF4FF0829FB7F8940B8FEA89FB898081DA
:1002F0008062CFCFCF93DF93EC01888D8823B9F054
:10030000AA89BB89E889F9898C9185FD03C0808120
:1003100086FD0DC00FB607FCF7CF8C9185FFF2CF9D
:10032000808185FFEDCFCE010E940B01E9CFDF91E7
:10033000CF91089590E0FC01E255FF4F2491FC011C
:10034000E656FF4F3491FC01EA57FF4FE491EE234C
:10035000C1F1222339F02330E9F090F4213001F18A
:10036000223011F1F0E0EE0FFF1FE458FF4FA5918E
:10037000B491EC91E32381E090E029F580E00895C9
:100380002730A9F02830C9F0243061F7809180002F
:100390008F7D03C0809180008F7780938000E2CFB3
:1003A00084B58F7784BDDECF84B58F7DFBCF809100
:1003B000B0008F778093B000D5CF8091B0008F7D53
:1003C000F9CF80E090E00895CF93DF9390E0FC01B7
:1003D000E656FF4F24918A579F4FFC018491882352
:1003E000C9F090E0880F991FFC01EE58FF4FA591CE
:1003F000B491FC01E859FF4FC591D49161110DC032
:100400009FB7F8948C91209582238C938881282320
:1004100028839FBFDF91CF910895623051F49FB739
:10042000F8943C91822F809583238C93E8812E2B26
:10043000EFCF8FB7F894EC912E2B2C938FBFEACF90
:100440008E3008F08E508770806480937C0080919D
:100450007A00806480937A0080917A0086FDFCCFD8
:10046000809178009091790008953FB7F894809139
:10047000810190918201A0918301B091840126B500
:10048000A89B05C02F3F19F00196A11DB11D3FBFCC
:10049000BA2FA92F982F8827BC01CD01620F711D9B
:1004A000811D911D42E0660F771F881F991F4A9595
:1004B000D1F708950F931F93CF93DF93EC018881B9
:1004C0009981009759F02A813B812617370730F030
:1004D00081E0DF91CF911F910F9108958B016F5FA4
:1004E0007F4F0E949F08009759F0998388831B8350
:1004F0000A832C813D81232B59F7FC011082E8CF20
:1005000080E0E7CFEF92FF920F931F93CF93DF939B
:100510006115710541F480E0DF91CF911F910F913A
:10052000FF90EF90089541155105B1F07B01EC016A
:100530000C811D81040F151FB8010E945A028823E7
:1005400051F3288139818C819D81B701820F931FDE
:100550000E946E091D830C8381E0DECFCF93DF9371
:10056000EC0188819981009711F00E941608198288
:1005700018821D821C821B821A82DF91CF910895FE
:10058000CF93DF93EC01FB0101900020E9F7319755
:10059000AF01461B570B0E948202811103C0CE019E
:1005A0000E94AE02CE01DF91CF910895CF93DF93E9
:1005B000EC01FB0144815581608171810E948202BE
:1005C000811103C0CE010E94AE02CE01DF91CF9116
:1005D0000895EF92FF920F931F93CF93DF93EC0157
:1005E0007B018A01BA010E945A0281110BC0CE011F
:1005F0000E94AE02CE01DF91CF911F910F91FF902B
:10060000EF9008951D830C83B701888199810E9422
:100610006E09F0CFEF92FF920F931F93CF93DF936A
:10062000CDB7DEB762970FB6F894DEBF0FBECDBF71
:100630008C01CB01F8011182108213821282158283
:1006400014824AE09E012F5F3F4F7901B9010E9459
:100650000807F70101900020E9F73197AF014E1923
:100660005F09B701C8010E94E90262960FB6F894CB
:10067000DEBF0FBECDBFDF91CF911F910F91FF90D5
:10068000EF900895CF93DF93EC01FB018617970756
:1006900049F0608171816115710541F04481558196
:1006A0000E94E902CE01DF91CF9108950E94AE022F
:1006B000F9CFFC01118210821382128215821482FA
:1006C000FB0101900020E9F73197AF01461B570B62
:1006D0000C94E902FC0180819181009711F00C9447
:1006E000160808951F920F920FB60F9211242F93A0
:1006F0003F934F935F936F937F938F939F93AF93AA
:10070000BF93EF93FF9381E991E00E940B01FF916A
:10071000EF91BF91AF919F918F917F916F915F9179
:100720004F913F912F910F900FBE0F901F901895F2
:100730001F920F920FB60F9211242F938F939F93B6
:10074000EF93FF93E091A101F091A2018081E091EC
:10075000A701F091A80182FD1BC090818091AA01A0
:100760008F5F8F732091AB01821741F0E091AA0156
:10077000F0E0EF56FE4F958F8093AA01FF91EF9125
:100780009F918F912F910F900FBE0F901F901895F2
:100790008081F4CF1F920F920FB60F9211242F93E6
:1007A0003F938F939F93AF93BF9380917D019091DF
:1007B0007E01A0917F01B091800130917C0123E006
:1007C000230F2D3758F50196A11DB11D20937C01F3
:1007D00080937D0190937E01A0937F01B09380016F
:1007E0008091810190918201A0918301B091840157
:1007F0000196A11DB11D8093810190938201A09368
:100800008301B0938401BF91AF919F918F913F91EC
:100810002F910F900FBE0F901F90189526E8230F71
:100820000296A11DB11DD2CFE1E9F1E0138212823F
:1008300088EE93E0A0E0B0E084839583A683B7833D
:100840008AE091E09183808385EC90E095878487AE
:1008500084EC90E09787868780EC90E0918B808B8A
:1008600081EC90E0938B828B82EC90E0958B848B73
:1008700086EC90E0978B868B118E128E138E148EE1
:100880006BE771E084E392E00E9459036BE771E04B
:100890008EE292E00C945903CF93DF93CDB7DEB78D
:1008A000E6970FB6F894DEBF0FBECDBF789484B53F
:1008B000826084BD84B5816084BD85B5826085BD5C
:1008C00085B5816085BD80916E00816080936E00EA
:1008D00010928100809181008260809381008091DC
:1008E000810081608093810080918000816080938D
:1008F00080008091B10084608093B1008091B0004D
:1009000081608093B00080917A00846080937A0047
:1009100080917A00826080937A0080917A00816071
:1009200080937A0080917A00806880937A00109298
:10093000C100E091A101F091A20182E08083E091E9
:100940009D01F0919E011082E0919F01F091A00124
:100950008FEC80831092A901E091A501F091A6018E
:1009600086E08083E091A301F091A4018081806101
:100970008083E091A301F091A4018081886080834D
:10098000E091A301F091A401808180688083E091CF
:10099000A301F091A40180818F7D808360E08EE0CF
:1009A0000E94E40160E08FE00E94E40162E082E0E6
:1009B0000E94E40162E083E00E94E40162E084E0DE
:1009C0000E94E40162E086E00E94E40162E085E0CA
:1009D0000E94E401F0E04F2EF0E05F2E8EE00E94D6
:1009E00020027C019093900180938F018FE00E9400
:1009F00020025C0190938E0180938D0182E00E9421
:100A00009A018C0190938C0180938B0185E00E9468
:100A10009A013C0181E090E06114710411F090E0D2
:100A200080E090938A018093890183E00E949A017B
:100A30006C0181E090E0C114D10411F090E080E0FD
:100A4000909388018093870186E00E949A014C016F
:100A500081E090E08114910411F090E080E09093A7
:100A600086018093850184E00E949A0161E070E034
:100A7000009711F070E060E02BE0E216F1040CF05A
:100A800049C131E020E00115110509F030E0E32E05
:100A9000F22E35E8A31633E0B3060CF0A1C110E046
:100AA00000E021E0312CE4E6AE16B1040CF020E0C9
:100AB000222E01151105E1F4E114F104C9F4F4E664
:100AC000AF16B1040CF4E2C0E114F10409F0E5C082
:100AD000672849F0C114D10409F4E7C0892819F046
:100AE000892B09F0E6C0D12CC12C212C312CDAC085
:100AF000D12CC12CCE0101960E940A036091850180
:100B000070918601CE0107960E940A0360918701C9
:100B100070918801CE010D960E940A0360918901AF
:100B200070918A01CE0143960E940A03B601CE015C
:100B300049960E940A03B101CE014F960E940A0312
:100B4000B701CE0185960E940A03B801CE018B96AB
:100B50000E940A0368E171E0CE01C1960E94590328
:100B6000BE01655D7F4FCE01C1960E94D60265E24F
:100B700071E00E94C002BE016B5D7F4F0E94D602F1
:100B800063E371E00E94C002BE01615E7F4F0E947C
:100B9000D6026DE371E00E94C002BE01675E7F4F26
:100BA0000E94D60268E471E00E94C002BE016D5E40
:100BB0007F4F0E94D60262E571E00E94C002BE0132
:100BC000635F7F4F0E94D6026EE571E00E94C00213
:100BD000BE01695F7F4F0E94D6026AE671E00E9403
:100BE000C002BE016F5F7F4F0E94D60267E771E0CF
:100BF0000E94C002BC018EE292E00E944203CE013C
:100C0000C1960E946A03CE018B960E946A03CE01B0
:100C100085960E946A03CE014F960E946A03CE0118
:100C200049960E946A03CE0143960E946A03CE0150
:100C30000D960E946A03CE0107960E946A03CE01B8
:100C400001960E946A038091380290913902E090E7
:100C50003202F090330200912E0210912F028E1575
:100C60009F0509F079C08091340290913502009778
:100C700009F464C00115110509F048C0E114F1043C
:100C800009F47EC0FC01808190E064C0D12CC12CAD
:100C9000870122242394312C2DCF6701212C312C64
:100CA000F12CE12C10E000E025CF212C312C760135
:100CB000F9CF70E060E0CE0101960E940A0370E077
:100CC00060E0CE0107960E940A0370E060E0CE016A
:100CD0000D960E940A0370E060E0CE0143960E94E8
:100CE0000A0370E060E0CE0149960E940A0370E0BA
:100CF00060E0CE014F960E940A0370E060E0CE01F2
:100D000085960E940A0370E060E020CFB8010E943F
:100D1000650920C0F12CE12C01E010E0E5E8AE16F9
:100D2000E3E0BE060CF4BDCECC24C394D12C212C20
:100D3000312CF12CE12C01E010E0DCCE0115110585
:100D4000F9F0E114F104E1F0F801808190E091956F
:100D500081959109892BA1F0A701B80181E991E062
:100D60000E948D0042E050E069E771E081E991E086
:100D70000E948D006EE272E084E392E00E944203E2
:100D80000E9435024B015C0138ECC32ED12CE12CC2
:100D9000F12C0E943502681979098A099B09683E7D
:100DA000734081059105A8F3F1E0CF1AD108E1085D
:100DB000F10828EE820E23E0921EA11CB11CC11482
:100DC000D104E104F10429F74114510409F406CED9
:100DD0000E94F700882309F4FDCD0E940000FACD9F
:100DE000EE24E394F12C0115110509F06DCE212CB0
:100DF000312CCC24C394D12CEE24E394F12C7ACE64
:100E00008EE292E00E946A0384E392E00C946A030B
:100E1000BB274A3031F4992322F4BDE290958195A5
:100E20009F4F0C941407BB27FB015527AA27880F57
:100E3000991FAA1FA41710F0A41B83955051B9F74E
:100E4000A05DAA3308F0A95DA193009779F7B111CD
:100E5000B1931192CB010C942D07DC01FC01672F9B
:100E600071917723E1F7329704C07C916D93708381
:100E70006291AE17BF07C8F308952F923F924F9229
:100E80005F926F927F928F929F92AF92BF92CF921A
:100E9000DF92EF92FF920F931F93CF93DF93CDB723
:100EA000DEB7CA1BDB0B0FB6F894DEBF0FBECDBF9B
:100EB00009942A88398848885F846E847D848C846C
:100EC0009B84AA84B984C884DF80EE80FD800C8175
:100ED0001B81AA81B981CE0FD11D0FB6F894DEBF58
:100EE0000FBECDBFED010895EE0FFF1F0590F491E9
:100EF000E02D09940F931F93CF93DF9382309105D8
:100F000010F482E090E0E0913C02F0913D0230E08C
:100F100020E0B0E0A0E0309799F42115310509F404
:100F20004AC0281B390B24303105D8F58A819B81B2
:100F30006115710589F1FB0193838283FE0111C064
:100F4000408151810281138148175907E0F0481709
:100F5000590799F4109761F012960C931297139613
:100F60001C933296CF01DF91CF911F910F9108957D
:100F700000933C0210933D02F4CF2115310551F04E
:100F80004217530738F0A901DB019A01BD01DF01C7
:100F9000F801C1CFEF01F9CF90933D0280933C025D
:100FA000CDCFFE01E20FF31F8193919322503109BF
:100FB00039832883D7CF20913A0230913B02232BEB
:100FC00041F4209102013091030130933B022093C0
:100FD0003A0220910001309101012115310541F4BF
:100FE0002DB73EB74091040150910501241B350BEC
:100FF000E0913A02F0913B02E217F307A0F42E1BB6
:101000003F0B2817390778F0AC014E5F5F4F24176C
:10101000350748F04E0F5F1F50933B0240933A0252
:10102000819391939FCFF0E0E0E09CCFCF93DF934B
:101030000097E9F0FC01329713821282A0913C02E2
:10104000B0913D02ED0130E020E01097A1F4208145
:101050003181820F931F20913A0230913B02281771
:10106000390709F061C0F0933B02E0933A02DF9147
:10107000CF910895EA01CE17DF07E8F54A815B8139
:101080009E0141155105B1F7E901FB83EA834991BE
:101090005991C40FD51FEC17FD0761F48081918130
:1010A0000296840F951FE901998388838281938139
:1010B0009B838A83F0E0E0E012968D919C911397D8
:1010C0000097B9F52D913C911197CD010296820FB1
:1010D000931F20913A0230913B022817390739F6C5
:1010E000309751F510923D0210923C02B0933B02B2
:1010F000A0933A02BCCFD383C28340815181840F35
:10110000951FC817D90761F44E5F5F4F8881998199
:10111000480F591F518340838A819B819383828327
:101120002115310509F0B0CFF0933D02E0933C0268
:101130009ECFFD01DC01C0CF13821282D7CFB0E079
:10114000A0E0E5EAF8E00C943F078C01009751F429
:10115000CB010E947A078C01C801CDB7DEB7E0E170
:101160000C945B07FC01E60FF71F9C01225031092C
:10117000E217F30708F49DC0D901CD91DC911197D6
:10118000C617D70798F0C530D10530F3CE010497C4
:101190008617970708F3C61BD70B2297C193D193E5
:1011A0006D937C93CF010E941608D6CF5B01AC1AD9
:1011B000BD0A4C018C0E9D1EA0913C02B0913D02D7
:1011C000512C412CF12CE12C109731F580913A02F1
:1011D00090913B028815990509F05CC046165706A8
:1011E00008F058C08091000190910101009741F4EE
:1011F0008DB79EB74091040150910501841B950B5A
:10120000E817F90708F055C0F0933B02E0933A0263
:10121000F90171836083A0CF8D919C9111971296F3
:101220006C90129713967C901397A815B90559F5F1
:101230006C0142E0C40ED11CCA14DB0420F1AC01E5
:101240004A195B09DA011296159780F0628273825F
:1012500051834083D9016D937C93E114F10471F0C3
:10126000D7011396FC93EE93129776CF22968C0FAC
:101270009D1FF90191838083F301EFCFF0933D022D
:10128000E0933C0269CF4816590608F42C017D0111
:10129000D3019ACFCB010E947A077C01009749F0D5
:1012A000AE01B8010E945C09C8010E9416088701BE
:1012B00053CF10E000E050CFFB01DC0102C00190F1
:1012C0000D9241505040D8F70895FB01DC018D91FB
:1012D000019080190110D9F3990B0895FB01DC01ED
:1012E00001900D920020E1F7089510E0C2E6D0E0F1
:1012F00004C0FE010E9474072196C336D107C9F7C6
:10130000F894FFCF00003E028000000000002D0195
:101310008D00BA007A01EB00C900DD007B22666F08
:101320007277617264223A20002C20226261636B22
:1013300077617264223A002C20226C656674223A2E
:10134000002C20227269676874223A002C202275D2
:10135000705F62223A002C2022646F776E5F6222F7
:101360003A002C20226C6566745F62223A002C20C1
:101370002272696768745F62223A007D000D0A007C
:107E0000112484B714BE81FFF0D085E080938100F7
:107E100082E08093C00088E18093C10086E0809377
:107E2000C20080E18093C4008EE0C9D0259A86E02C
:107E300020E33CEF91E0309385002093840096BBD3
:107E4000B09BFECF1D9AA8958150A9F7CC24DD24C4
:107E500088248394B5E0AB2EA1E19A2EF3E0BF2EE7
:107E6000A2D0813461F49FD0082FAFD0023811F036
:107E7000013811F484E001C083E08DD089C08234E0
:107E800011F484E103C0853419F485E0A6D080C0E4
:107E9000853579F488D0E82EFF2485D0082F10E0AE
:107EA000102F00270E291F29000F111F8ED06801E7
:107EB0006FC0863521F484E090D080E0DECF843638
:107EC00009F040C070D06FD0082F6DD080E0C81688
:107ED00080E7D80618F4F601B7BEE895C0E0D1E017
:107EE00062D089930C17E1F7F0E0CF16F0E7DF06D8
:107EF00018F0F601B7BEE89568D007B600FCFDCFD4
:107F0000A601A0E0B1E02C9130E011968C91119780
:107F100090E0982F8827822B932B1296FA010C0160
:107F200087BEE89511244E5F5F4FF1E0A038BF0790
:107F300051F7F601A7BEE89507B600FCFDCF97BE46
:107F4000E89526C08437B1F42ED02DD0F82E2BD052
:107F50003CD0F601EF2C8F010F5F1F4F84911BD097
:107F6000EA94F801C1F70894C11CD11CFA94CF0C13
:107F7000D11C0EC0853739F428D08EE10CD085E9AC
:107F80000AD08FE07ACF813511F488E018D01DD067
:107F900080E101D065CF982F8091C00085FFFCCF94
:107FA0009093C60008958091C00087FFFCCF809118
:107FB000C00084FD01C0A8958091C6000895E0E648
:107FC000F0E098E1908380830895EDDF803219F02E
:107FD00088E0F5DFFFCF84E1DECF1F93182FE3DFCA
:107FE0001150E9F7F2DF1F91089580E0E8DFEE27F6
:047FF000FF270994CA
:027FFE00040479
:00000001FF
